:0200000080334B
:10003500310031137441312F744E312F7453312FE8
:100045007448312F7455312F744D312F7441312F30
:100055007454312F314D7444312F7449312F744EFE
:10006500312F7445312F7453312F7448312F80FE51
:10010000758901758CFC758A18D28C308DFDC28D75
:10011000C28C2274383124740C312474013124745B
:1001200080312422F5A0C2B0D2B13100C2B122F593
:10013000A0D2B0D2B13100C2B122F8E6312F08B856
:1001400000F9227401312422748031242274C031D8
:02015000242267
:00000001FF
